:100000000C9499010C940E0B0C94E30A0C94B80A0E
:100010000C948D0A0C94620A0C94370A0C940C0A06
:100020000C94E1090C94CA010C94CA010C94CA0105
:100030000C94CA010C94CA010C94CA010C94CA0114
:100040000C94CA010C94CA010C94CA010C94CA0104
:100050000C94CA010C94CA010C94CA010C94130E9E
:100060000C94CA010C94630B0C94390B0C94CA01C8
:100070000C94CA010C94CA010C94CA010C94CA01D4
:100080000C94CA010C94CA010C94CA010C94CA01C4
:100090000C94CA010C94CA010C94CA010C94CA01B4
:1000A0000C94CA010C94CA010C94CA010C94CA01A4
:1000B0000C94CA010C94CA010C94CA010C94CA0194
:1000C0000C94CA010C94CA010C94CA010C94CA0184
:1000D0000C94CA010C94CA010C94CA010C94CA0174
:1000E0000C94CA01B40BB70BA60BAA0BB00BEE0B0A
:1000F000BB0BBF0BC50BC90BCD0BD30BD70BDB0B4E
:10010000EE0BE10BE50BE90B430C4A0C270C2E0C14
:10011000350C3C0C510C580C2D0D320D370D410D8A
:100120004B0DC40D550D5D0D650D6F0D790D830DD6
:10013000920D9C0DC40DA60DB00DBA0D0C94430C80
:100140000C94E50B0C94E10B0C94B1020C94410D52
:100150000C942C020C94A60B0C94830D0C940C03A1
:100160000C94650D0C94A60D0C94EE0B0C94C90B1D
:100170000C94790D0C9432030C94C50B0C94CD0B9C
:100180000C94C40D0C94BA0D0C944B0D0C94B40B40
:100190000C943C0C0C949C0D0C94FB010C94350CB1
:1001A0000C94AA0B0C94CC010C94510C0C94D30B12
:1001B0000C94BF0B0C9464020C942D0D0C94D70B73
:1001C0000C946F0D0C94BB0B0C94DB0B0C94B70BC5
:1001D0000C940A020C94E90B0C94580C0C942D11FD
:1001E0000C94550D0C94B00B0C94CD010C94370D60
:1001F0000C94270C0C94920D0C944A0C0C94B00D9A
:100200000C942E0C0C941E020C94320D0C945D0D6B
:1002100000002100240027002A002D0030003300B8
:1002200001010000040107010A010000220025006D
:1002300028002B002E0031003400020100000501CF
:1002400008010B01000020002300260029002C00DB
:100250002F0032000001000003010601090105051D
:100260000505070508080808020202020A0A08082C
:10027000040404040101010101010101030303035A
:1002800003030303040707070C0C0C0C0C0C0C0CE9
:100290000202020206060606060606060B0B0B0BFA
:1002A0000B0B0B0B0102102020080810204010201F
:1002B000408002010201080402010102040810202A
:1002C0004080804020100804020180040201804028
:1002D0002010080402010804020101020408102091
:1002E0004080010204081020408000000A0B02092F
:1002F0000C0D0E08070304010000000000000000C0
:1003000000000000000000000000000000000000ED
:1003100000000000000012111000000000000000AA
:1003200000000000000000000000000000000000CD
:100330002D1111241FBECFEFD1E2DEBFCDBF00E0F3
:100340000CBF12E0A0E0B2E0E8E2F8E200E00BBF90
:1003500002C007900D92A434B107D9F723E0A4E4BA
:10036000B2E001C01D92AA3FB207E1F711E0C9E96E
:10037000D1E000E006C021970109802FFE010E9414
:100380006C11C839D10780E00807A9F70E94A20EB6
:100390000C9412140C9400000895CF92DF92EF9207
:1003A000FF920F931F93CF93DF936C017A018B0120
:1003B000C0E0D0E0CE15DF0581F0D8016D918D0150
:1003C000D601ED91FC910190F081E02DC6011995C7
:1003D000892B11F02196EECF7E01C701DF91CF91DD
:1003E0001F910F91FF90EF90DF90CF9008950895A7
:1003F00080E090E00895FC01538D448D252F30E07E
:10040000842F90E0821B930B541710F0CF96089521
:1004100001970895FC01918D828D981761F0828D6E
:10042000DF01A80FB11D5D968C91928D9F5F9F7328
:10043000928F90E008958FEF9FEF0895FC01918DCA
:10044000828D981731F0828DE80FF11D858D90E037
:1004500008958FEF9FEF0895FC01918D228D892FD4
:1004600090E0805C9F4F821B91098F7399270895BC
:1004700084E492E00E942C0221E0892B09F420E020
:10048000822F0895FC01848DDF01A80FB11DA35AAE
:10049000BF4F2C91848D90E001968F739927848FA4
:1004A000A689B7892C93A089B1898C9183708064C7
:1004B0008C93938D848D981306C00288F389E02D68
:1004C00080818F7D80830895EF92FF920F931F9319
:1004D000CF93DF93EC0181E0888F9B8D8C8D9813F7
:1004E00005C0E889F989808185FD26C0F62E0B8D2F
:1004F00010E00F5F1F4F0F731127E02E8C8DE81255
:100500000CC00FB607FCFACFE889F989808185FF16
:10051000F5CFCE010E944202F1CF8B8DFE01E80F94
:10052000F11DE35AFF4FF0829FB7F8940B8FEA89D1
:10053000FB89808180620AC09FB7F894EE89FF89A9
:100540006083E889F98980818370806480839FBF9C
:1005500081E090E0DF91CF911F910F91FF90EF909C
:100560000895CF93DF93EC01888D8823C9F0EA8941
:10057000FB89808185FD05C0A889B9898C9186FD9C
:100580000FC00FB607FCF5CF808185FFF2CFA88999
:10059000B9898C9185FFEDCFCE010E944202E7CF51
:1005A000DF91CF91089580E090E0892B21F00E94A7
:1005B0003802811125C080E090E0892B41F080E075
:1005C00090E0892B21F00E94000081111CC080E086
:1005D00090E0892B41F080E090E0892B21F00E948F
:1005E0000000811113C080E090E0892BA1F080E031
:1005F00090E0892B81F00E94000081110AC00895CB
:100600000E940000D8CF0E940000E1CF0E940000AD
:10061000EACF0C94000008958091DF030E945F0CE4
:10062000892B61F48091960390919703A091980390
:10063000B09199030197A109B1090BC0809196036C
:1006400090919703A0919803B09199030196A11DF1
:10065000B11D8093960390939703A0939803B09352
:100660009903089580915E030E945F0C892B61F4C9
:100670008091150390911603A0911703B091180370
:100680000197A109B1090BC0809115039091160340
:10069000A0911703B09118030196A11DB11D80937D
:1006A000150390931603A0931703B09318030895AE
:1006B0000E940D14EF92FF920F931F93CF93DF933D
:1006C000FC016F3F710519F014F06FEF70E0EB0162
:1006D00061307F4F14F4C1E0DFEF808591858C1786
:1006E0009D07D1F1D187C087D583C483DF01AF587F
:1006F000BF4FCF018E589F4F7C018F0100591F4F74
:10070000D7FF12C060E08C910E94880C8FE090E0CF
:100710000197F1F761E0F70180810E94880C66275C
:1007200077276C1B7D0B0EC061E08C910E94880CBA
:100730008FE090E00197F1F760E0F70180810E947F
:10074000880CBE01F8018081DF91CF911F910F913C
:10075000FF90EF900C94040DDF91CF911F910F91BA
:10076000FF90EF9008952F923F924F925F926F9279
:100770007F928F929F92AF92BF92CF92DF92EF9231
:10078000FF920F931F93CF93DF9300D000D0CDB78C
:10079000DEB79E838D83DC0196966D917D918D9160
:1007A0009C91999712960D911C91139756968D9046
:1007B0009D90AD90BC9059970E9490126B017C0166
:1007C000B801110F880B990B0E949012A50194019A
:1007D0000E9445139B01AC01C701B6010E94E611BE
:1007E00020E030E044EB53E40E9445130E9458128D
:1007F000ED81FE81628F738F848F958F0E94070E2B
:100800000D811E8109581F4FD801CD90DD90ED90CC
:10081000FC90DC01CB018C199D09AE09BF094597FD
:10082000A105B10508F46AC00E94070EED81FE81A2
:10083000C6A0D7A0E0A4F1A422A133A144A155A150
:1008400029833A834B835C83228033808688978810
:10085000A08CB18CF80120813181AB01421B530B7C
:10086000BA0180E090E00E948E129B01AC0160E032
:1008700070E08AE794E40E94E6112B013C01C70175
:10088000B60129813A814B815C81621B730B840B19
:10089000950B0E9490129B01AC01C301B2010E9412
:1008A000451320E030E040E752E40E9445132B015D
:1008B0003C01B101330C880B990B0E949012A501E9
:1008C00094010E9445139B01AC01C301B2010E9437
:1008D000E611AD81BE811A966D937D938D939C93A5
:1008E0001D97FD01C2A2D3A2E4A2F5A20E94070EA9
:1008F000D8016D937D938D939C931397ED81FE8129
:100900009080F1E09F127EC30E94070E0D811E8130
:1009100005581F4FD801CD90DD90ED90FC90DC0183
:10092000CB018C199D09AE09BF098997A105B105B5
:1009300008F439C40E94070EF80160837183828332
:100940009383AD81BE8111968C911197811180C2E4
:100950005E968D919D910D90BC91A02DED81FE81B3
:10096000028D138D248D358DBC01CD01601B710B63
:10097000820B930B0E9490126B017C01AD80BE80B4
:10098000FAE6AF0EB11CD5018C910D811E810B587A
:100990001F4F8111AFC1ED81FE81E559FF4F80816D
:1009A00020E030E0A901882339F0C701B6010E9498
:1009B000E11187FF33C006C0C701B6010E94401392
:1009C000181664F5ED81FE816285738584859585B1
:1009D000EE5AFF4F20813181428153810E9445139D
:1009E000DC01CB01B058ED81FE81E65AFF4F8083D8
:1009F0009183A283B38360817181828193810E94FC
:100A000058129B01D8016D937C93F5019082AD81C2
:100A1000BE8115967C936E931497EFC220E030E070
:100A2000A901C701B6010E9440132601370118161B
:100A300024F077FA709477F87094ED81FE816685E2
:100A400077858089918920E030E040EC50E40E9475
:100A50004513A30192010E94E11118160CF0C4C3C2
:100A600020E030E0A901C701B6010E94401318162A
:100A70005CF420E030E040E251E4C701B6010E949E
:100A8000401318165CF036C120E030E040E251EC33
:100A9000C701B6010E94E11187FF2CC1ED81FE81E3
:100AA000468457846088718820E030E040E251E459
:100AB000C701B6010E9474114B015C0120E030E0D7
:100AC00040EC50E4C301B2010E944513A50194011A
:100AD0000E94451320E030E0A9010E94401318163F
:100AE0009CF4AD81BE811E966D917D918D919C91FE
:100AF000519720E030E040EC50E40E944513A501FE
:100B000094010E94451311C0ED81FE8166857785B1
:100B10008089918920E030E040EC50E40E94451348
:100B2000A50194010E94451390580E94B81320E03B
:100B300030E040EC50E40E94E6112B013C01AD8115
:100B4000BE811A968D909D90AD90BC901D9720E02F
:100B500030E0A901C701B6010E944013A701960128
:100B600018160CF05058ED81FE81EE5AFF4F80812F
:100B70009181A281B38189839A83AB83BC83C701AE
:100B8000B6010E94E611A30192010E9445139B0148
:100B9000AC01C501B4010E94741129813A814B81D5
:100BA0005C810E9445132B013C0120E030E040EACB
:100BB00051EC0E94E11187FD11C020E030E040EAD5
:100BC00051E4C301B2010E94401318166CF4412C89
:100BD000512C40EA642E41E4742E06C0412C512C65
:100BE00050EA652E51EC752ED8016D917C91072E3F
:100BF000000C880B990B0E949012AD80BE80BAE564
:100C0000AB0EB11CF5016083718382839383608195
:100C1000718182819381A30192010E947411D50197
:100C20006D937D938D939C93139720E030E0A90101
:100C3000C701B6010E94401387FD24C0F501608101
:100C400071818281938120E030E048EC51E40E9480
:100C5000E11187FD12C0D5016D917D918D919C911F
:100C600020E030E04FE753E40E944013181624F5CB
:100C700080E090E0AFE7B3E42EC080E090E0A8EC25
:100C8000B1E429C0D5016D917D918D919C9120E0B9
:100C900030E04FE753EC0E94E11187FD13C0F501EE
:100CA000608171818281938120E030E048EC51ECD9
:100CB0000E94401318165CF0F50180819181A28199
:100CC000B38109C080E090E0AFE7B3EC04C080E0FE
:100CD00090E0A8ECB1ECF50180839183A283B3830B
:100CE00060817181828193810E945812F801718321
:100CF0006083AAC081E0D5018C93ED81FE81E1582B
:100D0000FF4F0190F081E02D3097A9F0AD81BE81B9
:100D1000A459BF4F9C9191110EC08C93AD81BE819F
:100D2000A359BF4F6C9170E0AD81BE81AC58BF4FED
:100D30008C9190E01995ED81FE81628573858485A3
:100D40009585EE5AFF4F20813181428153810E9467
:100D500045134B015C0120E030E040EA51EC0E9479
:100D6000E11187FD11C020E030E040EA51E4C50107
:100D7000B4010E94401318166CF4812C912C20EAC7
:100D8000A22E21E4B22E06C0812C912C30EAA32E93
:100D900031ECB32EED81FE81E65BFF4F2081318186
:100DA00042815381C701B6010E944513ED80FE8048
:100DB000FAE5EF0EF11CD7016D937D938D939C9313
:100DC00013976D917D918D919C91A50194010E9445
:100DD0007411F701608371838283938360817181D1
:100DE0008281938120E030E04FE753EC0E94E111D3
:100DF00087FD13C0D7016D917D918D919C9120E06D
:100E000030E04FE753E40E94401318165CF0F701FE
:100E100080819181A281B38109C080E090E0AFE739
:100E2000B3EC04C080E090E0AFE7B3E4F701808367
:100E30009183A283B38360817181828193810E94B7
:100E40005812D8016D937C93F80120813181D5C06F
:100E5000AD81BE8111968C911197813009F0CBC084
:100E60001A966D917D918D919C911D971E962D9155
:100E70003D914D915C9151979A96CD90DD90ED907A
:100E8000FC909D970E947411A70196010E94451342
:100E90006B017C0120E030E048EC51EC0E94E11154
:100EA00087FD11C020E030E048EC51E4C701B601F5
:100EB0000E94401318166CF4C12CD12C88ECE82E3B
:100EC00081E4F82E06C0C12CD12C98ECE92E91ECCF
:100ED000F92E0D811E810B581F4FF8016081718121
:100EE000072E000C880B990B0E949012AD81BE81D9
:100EF000DA966D937D938D939C93DD97DA966D9141
:100F00007D918D919C91DD97A70196010E947411AE
:100F1000ED81FE8162AF73AF84AF95AF5F01FAE6FA
:100F2000AF0EB11CD5018C91ED81FE81882329F093
:100F300012AE13AE14AE15AE1FC0668577858089DC
:100F4000918920E030E0A9010E94E111811114C0D3
:100F500020E030E0A901C701B6010E944013181635
:100F60000CF0F8C120E030E040E751E4C701B601E1
:100F70000E94E11187FDF9C1AD81BE81DA966D91C4
:100F80007D918D919C91DD9720E030E04FE753EC0F
:100F90000E94E11187FD15C0ED81FE8162AD73AD48
:100FA00084AD95AD20E030E04FE753E40E9440135C
:100FB000181664F0ED81FE8182AD93ADA4ADB5ADA0
:100FC00009C080E090E0AFE7B3EC04C080E090E0BF
:100FD000AFE7B3E4ED81FE8182AF93AFA4AFB5AFCD
:100FE00062AD73AD84AD95AD0E9458129B01D801DE
:100FF0006D937C9302C020E030E0ED81FE8135836B
:101000002483D1C0ED81FE818081823009F0C0C18E
:101010000E94070E0D811E8105581F4FD801CD90EB
:10102000DD90ED90FC90DC01CB018C199D09AE099F
:10103000BF098997A105B10508F4B5C00E94070E44
:10104000F8016083718382839383AD81BE8114969E
:101050006D917C91159716960D911C911797072EFF
:10106000000C880B990B0E9490122DEC3CEC4CE488
:101070005FE30E9445136B017C01B801110F880BDF
:10108000990B0E9490122DEC3CEC4CE45EE30E9424
:1010900045139B01AC01C701B6010E94751120E008
:1010A00030E0A9010E94401387FD2DC0ED81FE8133
:1010B0006481758106811781072E000C880B990BBE
:1010C0000E9490122DEC3CEC4CE45FE30E9445132F
:1010D0006B017C01B801110F880B990B0E949012D3
:1010E0002DEC3CEC4CE45EE30E9445139B01AC010B
:1010F000C701B6010E94751120E030E040E05FE3D7
:101100000E94751130C0AD81BE8114966D917C91A5
:10111000159716960D911C911797072E000C880BAA
:10112000990B0E9490122DEC3CEC4CE45FE30E9482
:1011300045136B017C01B801110F880B990B0E94BC
:1011400090122DEC3CEC4CE45EE30E9445139B01B5
:10115000AC01C701B6010E94751120E030E040E00B
:101160005FE30E9474110E945812ED81FE81758325
:10117000648384819581181619061CF484819581F5
:1011800009C0AD81BE8114968D919C911597919562
:10119000819591090B973CF4ED81FE8186819781C1
:1011A000892B09F4EEC0AD81BE8114966D917C91BE
:1011B0001597CD0126960FB6F894DEBF0FBECDBFB2
:1011C000DF91CF911F910F91FF90EF90DF90CF9023
:1011D000BF90AF909F908F907F906F905F904F9057
:1011E0003F902F900C945A03AD81BE811A962D9199
:1011F0003D914D915C911D9729833A834B835C838C
:101200001E968D909D90AD90BC90519720E030E05F
:10121000A901C701B6010E944013181624F0A701C6
:101220009601505802C0A7019601AD81BE819A96E1
:101230004D905D906D907C909D97C701B6010E9486
:10124000E611A50194010E9445139B01AC0169813F
:101250007A818B819C810E947411A30192010E946A
:1012600045136B017C0120E030E048EC51EC0E941A
:10127000E11187FD11C020E030E048EC51E4C701E6
:10128000B6010E94401318166CF4C12CD12C68ECE6
:10129000E62E61E4F62E06C0C12CD12C78ECE72EA8
:1012A00071ECF72EF80160817181072E000C880B1C
:1012B000990B0E949012AD81BE81DA966D937D9359
:1012C0008D939C93DD97DA966D917D918D919C9194
:1012D000DD97A70196010E947411ED81FE8162AF36
:1012E00073AF84AF95AF62AD73AD84AD95AD20E0C3
:1012F00030E04FE753EC0E94E11187FD17C0AD814C
:10130000BE81DA966D917D918D919C91DD9720E063
:1013100030E04FE753E40E944013181664F0ED816B
:10132000FE8182AD93ADA4ADB5AD09C080E090E083
:10133000AFE7B3EC04C080E090E0AFE7B3E4ED8149
:10134000FE8182AF93AFA4AFB5AF62AD73AD84AD94
:1013500095AD75CD20E030E040E751ECC701B60116
:101360000E94401318160CF007CEAD81BE81DA96AC
:101370001D921D921D921C92DD9781E0F5018083E4
:10138000FBCDAD81BE8115961C921E9214970BCF9A
:1013900026960FB6F894DEBF0FBECDBFDF91CF917A
:1013A0001F910F91FF90EF90DF90CF90BF90AF9083
:1013B0009F908F907F906F905F904F903F902F9075
:1013C00008951F920F920FB60F9211240BB60F9231
:1013D0002F933F934F935F936F937F938F939F933D
:1013E000AF93BF93EF93FF93E0910E02F0910F0242
:1013F0001995FF91EF91BF91AF919F918F917F913F
:101400006F915F914F913F912F910F900BBE0F9075
:101410000FBE0F901F9018951F920F920FB60F924C
:1014200011240BB60F922F933F934F935F936F93BB
:101430007F938F939F93AF93BF93EF93FF93E0912D
:101440000C02F0910D021995FF91EF91BF91AF91B0
:101450009F918F917F916F915F914F913F912F91CC
:101460000F900BBE0F900FBE0F901F9018951F92FC
:101470000F920FB60F9211240BB60F922F933F933A
:101480004F935F936F937F938F939F93AF93BF938C
:10149000EF93FF93E0910202F09103021995FF91FF
:1014A000EF91BF91AF919F918F917F916F915F91DC
:1014B0004F913F912F910F900BBE0F900FBE0F9049
:1014C0001F9018951F920F920FB60F9211240BB612
:1014D0000F922F933F934F935F936F937F938F93CD
:1014E0009F93AF93BF93EF93FF93E0910002F0912E
:1014F00001021995FF91EF91BF91AF919F918F914B
:101500007F916F915F914F913F912F910F900BBE03
:101510000F900FBE0F901F9018951F920F920FB64D
:101520000F9211240BB60F922F933F934F935F931B
:101530006F937F938F939F93AF93BF93EF93FF939B
:10154000E0910A02F0910B021995FF91EF91BF9182
:10155000AF919F918F917F916F915F914F913F914B
:101560002F910F900BBE0F900FBE0F901F901895EC
:101570001F920F920FB60F9211240BB60F922F935A
:101580003F934F935F936F937F938F939F93AF930B
:10159000BF93EF93FF93E0910802F0910902199530
:1015A000FF91EF91BF91AF919F918F917F916F913B
:1015B0005F914F913F912F910F900BBE0F900FBEF7
:1015C0000F901F9018951F920F920FB60F92112433
:1015D0000BB60F922F933F934F935F936F937F932D
:1015E0008F939F93AF93BF93EF93FF93E091060286
:1015F000F09107021995FF91EF91BF91AF919F91E3
:101600008F917F916F915F914F913F912F910F90AB
:101610000BBE0F900FBE0F901F9018951F920F9248
:101620000FB60F9211240BB60F922F933F934F9347
:101630005F936F937F938F939F93AF93BF93EF933A
:10164000FF93E0910402F09105021995FF91EF914B
:10165000BF91AF919F918F917F916F915F914F91CA
:101660003F912F910F900BBE0F900FBE0F901F90C8
:1016700018951F920F920FB60F9211240BB60F926E
:101680002F933F934F935F936F937F938F939F938A
:10169000AF93BF93EF93FF9384E492E00E944202E2
:1016A000FF91EF91BF91AF919F918F917F916F913A
:1016B0005F914F913F912F910F900BBE0F900FBEF6
:1016C0000F901F9018951F920F920FB60F92112432
:1016D0000BB60F922F938F939F93EF93FF93E0910D
:1016E0005402F09155028081E0915A02F0915B0220
:1016F00082FD12C0908180915D028F5F8F73209177
:101700005E02821751F0E0915D02F0E0EC5BFD4F6C
:10171000958F80935D0201C08081FF91EF919F9131
:101720008F912F910F900BBE0F900FBE0F901F90B7
:10173000189590E0FC013197E231F10508F04EC0B8
:101740008827EE58FF4F8F4F0C946C1180918000CA
:101750008F7703C0809180008F7D809380000895F3
:1017600080918000877FF9CF84B58F7702C084B5E0
:101770008F7D84BD08958091B0008F7703C08091E4
:10178000B0008F7D8093B0000895809190008F7796
:1017900007C0809190008F7D03C080919000877F6B
:1017A0008093900008958091A0008F7707C080916A
:1017B000A0008F7D03C08091A000877F8093A00050
:1017C0000895809120018F7707C0809120018F7D3F
:1017D00003C080912001877F8093200108953FB747
:1017E000F8948091F6039091F703A091F803B091DB
:1017F000F90326B5A89B05C02F3F19F00196A11D3E
:10180000B11D3FBFBA2FA92F982F8827820F911D96
:10181000A11DB11DBC01CD0142E0660F771F881FDD
:10182000991F4A95D1F70895E82FF0E0EE0FFF1FBA
:10183000E050FE4F7183608390E088309105F0F5B1
:10184000FC018827EC57FF4F8F4F0C946C1180914F
:101850006900836080936900E89A08958091690027
:101860008C6080936900E99A089580916900806393
:1018700080936900EA9A089580916900806C809352
:101880006900EB9A089580916A00836080936A00F2
:10189000EC9A089580916A008C6080936A00ED9ABA
:1018A000089580916A00806380936A00EE9A08959B
:1018B00080916A00806C80936A00EF9A0895CF93BC
:1018C000DF93282F30E0F901E651FD4F8491F901B3
:1018D000EC55FD4FD491F901E25AFD4FC491CC2350
:1018E00091F081110E94990BEC2FF0E0EE0FFF1F99
:1018F000EC5BFD4FA591B491EC91ED2381E090E07C
:1019000021F480E002C080E090E0DF91CF91089563
:101910001F93CF93DF93282F30E0F901E651FD4F5D
:101920008491F901EC55FD4FD491F901E25AFD4F34
:10193000C491CC23C1F0162F81110E94990BEC2F7A
:10194000F0E0EE0FFF1FE65DFD4FA591B4919FB74C
:10195000F894111104C08C91D095D82302C0EC9159
:10196000DE2BDC939FBFDF91CF911F910895CF9322
:10197000DF9390E0FC01EC55FD4F2491FC01E25A0D
:10198000FD4F8491882361F190E0880F991FFC013D
:10199000E05FFD4FC591D491FC01E65DFD4FA5913F
:1019A000B491611109C09FB7F89488812095822372
:1019B0008883EC912E230BC0623061F49FB7F894BA
:1019C0008881322F309583238883EC912E2B2C93A2
:1019D0009FBF06C08FB7F894E8812E2B28838FBF56
:1019E000DF91CF9108951F93CF93DF93182FC1EE0E
:1019F000D2E061E089810E94B70C612F8981DF917B
:101A0000CF911F910C94880C1F93CF93DF93182FC5
:101A1000EB0161E00E94B70C209711F460E004C074
:101A2000CF3FD10539F461E0812FDF91CF911F9134
:101A30000C94880CE12FF0E0E651FD4FE4918E2FDD
:101A400090E0FC013197E231F10508F09DC0882754
:101A5000E457FF4F8F4F0C946C1184B5806884BDA0
:101A6000C7BD97C084B5806284BDC8BD92C0809157
:101A70008000806880938000D0938900C0938800A4
:101A800088C080918000806280938000D0938B001A
:101A9000C0938A007EC0809180008860809380001F
:101AA000D0938D00C0938C0074C08091B00080688A
:101AB0008093B000C093B3006CC08091B00080628E
:101AC0008093B000C093B40064C08091900080689F
:101AD00080939000D0939900C09398005AC0809151
:101AE0009000806280939000D0939B00C0939A00F6
:101AF00050C080919000886080939000D0939D00AA
:101B0000C0939C0046C08091A00080688093A00094
:101B10008091A0008F7B8093A000D093A900C093F8
:101B2000A80037C08091A00080628093A000D0936D
:101B3000AB00C093AA002DC08091A0008860809364
:101B4000A000D093AD00C093AC0023C080912001D1
:101B5000806880932001D0932901C093280119C087
:101B600080912001806280932001D0932B01C0934B
:101B70002A010FC080912001886080932001D093BA
:101B80002D01C0932C0105C0C038D1050CF04BCFFE
:101B900045CFDF91CF911F9108958F929F92AF9281
:101BA000BF92CF92DF92EF92FF926B017C010E9475
:101BB000EF0B4B015C01C114D104E104F104F1F01D
:101BC0000E94EF0BDC01CB0188199909AA09BB0916
:101BD000883E9340A105B10570F321E0C21AD108F7
:101BE000E108F10888EE880E83E0981EA11CB11C64
:101BF000C114D104E104F10419F7DDCFFF90EF9097
:101C0000DF90CF90BF90AF909F908F9008952FB7A7
:101C1000F8946091F2037091F3038091F403909132
:101C2000F5032FBF08951F920F920FB60F92112444
:101C30002F933F938F939F93AF93BF938091F20322
:101C40009091F303A091F403B091F5033091F10367
:101C500023E0230F2D3720F40196A11DB11D05C0EF
:101C600026E8230F0296A11DB11D2093F103809356
:101C7000F2039093F303A093F403B093F5038091E0
:101C8000F6039091F703A091F803B091F903019640
:101C9000A11DB11D8093F6039093F703A093F80361
:101CA000B093F903BF91AF919F918F913F912F9185
:101CB0000F900FBE0F901F901895CF92DF92EF926A
:101CC000FF920F931F93E82FF92F05C001501109C0
:101CD0002109310961F1908196239417B9F305C068
:101CE000015011092109310911F1908196239413B2
:101CF000F7CFC12CD12CE12CF12C0AC08FEFC81AE0
:101D0000D80AE80AF80A0C151D052E053F0579F0DA
:101D100080818623841791F36C2D7D2D8E2D9F2D30
:101D20001F910F91FF90EF90DF90CF90089560E0AA
:101D300070E080E090E01F910F91FF90EF90DF90B6
:101D4000CF900895789484B5826084BD84B5816015
:101D500084BD85B5826085BD85B5816085BD809176
:101D60006E00816080936E001092810080918100EE
:101D700082608093810080918100816080938100E6
:101D8000809180008160809380008091B1008460A8
:101D90008093B1008091B00081608093B000809109
:101DA0009100826080939100809191008160809386
:101DB0009100809190008160809390008091A100BB
:101DC00082608093A1008091A10081608093A10036
:101DD0008091A00081608093A000809121018260A9
:101DE0008093210180912101816080932101809164
:101DF000200181608093200180917A00846080932B
:101E00007A0080917A00826080937A0080917A00D3
:101E1000816080937A0080917A00806880937A0054
:101E20001092C1008091E303883020F46CE073E0ED
:101E30000E94140C80916203883020F462E373E006
:101E40000E94140CE0915402F091550292E09083AC
:101E5000E0915002F09151021082E0915202F09113
:101E6000530280E1808310925C02E0915802F0916D
:101E7000590286E08083E0915602F09157028081FA
:101E800080618083E0915602F091570280818860E2
:101E90008083E0915602F0915702808180688083B0
:101EA000E0915602F091570280818F7D808381E01E
:101EB000809380008AE08093810083E08093B0006B
:101EC0009093B10092E0792ECCE3D0E024ECA22EE6
:101ED000BB24BA946624639433E2832E912C84E469
:101EE00092E00E942C02892B09F452C084E492E013
:101EF0000E940A02182F682F84E492E00E94640274
:101F000042E050E060E472E084E492E00E94CD019F
:101F1000123321F15CF41033A1F01133C9F5709242
:101F20007003B0927703A092760325C01333E9F0D3
:101F3000143371F570927003B0927703A092760318
:101F400021C0709270031092770310927603709202
:101F5000EF021092F6021092F5021AC0709270030E
:101F6000D0937703C09376030DC070927003D09323
:101F70007703C09376037092EF02D093F602C0937A
:101F8000F50206C07092EF02B092F602A092F5023E
:101F90006AE070E080E090E00E94CD0D0E94070EA4
:101FA000C090E702D090E802E090E902F090EA02E7
:101FB000DC01CB018C199D09AE09BF094897A10529
:101FC000B10510F06092E6028091E602882309F4E0
:101FD00059C00E94070E6093E7027093E802809355
:101FE000E9029093EA021092E60280E00E94F30C6C
:101FF00083E090E00197F1F781E00E94F30CC401C7
:102000000197F1F780E00E94F30C60E08091E2021A
:102010000E94B70C8091E20290E0FC01EC55FD4F6C
:102020006491FC01E25AFD4FE491F0E0EE0FFF1FD6
:10203000EC5BFD4F8591949100E412E42FE030E0D9
:10204000462F0E945D0E611571058105910551F0C5
:102050006B017C012FEFC21AD20AE20AF20A8FE06A
:10206000F82203C0C12CD12C7601C701B6010E9411
:1020700090126093EB027093EC028093ED029093C8
:10208000EE020CC06091EB027091EC028091ED02C7
:102090009091EE020E9458126B017C01C701B601BB
:1020A0000E94901220E030E048E652E40E94E611DF
:1020B0001B012C0120E030E048EC53E40E94401367
:1020C00087FF24C0CD28CE28CF2801F120E030E0C2
:1020D00040EA51E4C201B1010E94E11187FF16C03C
:1020E00061E08DE20E94B70C61E08DE20E94880CF5
:1020F00060E570E080E090E00E94CD0D61E08DE24F
:102100000E94B70C60E08DE20E94880C80E793E0AB
:102110000E94B3038FEE92E00E94B3030E94D302A9
:10212000DECE9F92AF92BF92CF92DF92EF92FF925C
:102130000F931F93CF93DF93EC01FC01EC58FF4FFB
:10214000608385E0982E969EF0011124E05FFD4F9C
:1021500080818E0102591F4FD8018C935E01BFE62A
:10216000AB0EB11C9181D5019C93119692819C93E9
:102170006E01B1E7CB0ED11C9381D6019C937E01F9
:10218000B2E7EB0EF11C9481F70190833697108231
:1021900062E00E94B70C62E0D5018C910E94B70CFE
:1021A00061E0F60180810E94B70C61E0D7018C915B
:1021B0000E94B70C1EA21FA218A619A684EF91E0D8
:1021C00099878887188289E090E09B838A8388E6D4
:1021D00091E1ADE1B2E48E8B9F8BA88FB98FF801AE
:1021E0008081823119F4359690821AC0833111F4BE
:1021F00084E003C0843131F483E0FE01ED58FF4FE9
:1022000080830EC0853111F482E0F7CF833011F462
:1022100081E0F3CF823021F4FE01ED58FF4F1082B0
:1022200060E070E0CE010E945A031EA21FA218A611
:1022300019A60E94070EC958DF4F688379838A83E5
:102240009B83DF91CF911F910F91FF90EF90DF90D3
:10225000CF90BF90AF909F900895E4E4F2E0138296
:10226000128288EE93E0A0E0B0E084839583A68399
:10227000B78382E392E09183808385EC90E0958739
:10228000848784EC90E09787868780EC90E0918B40
:10229000808B81EC90E0938B828B82EC90E0958B2D
:1022A000848B86EC90E0978B868B118E128E138E2A
:1022B000148E61E080E793E00E94911062E08FEE5F
:1022C00092E00E949110E1EEF2E08CE3808381E4E1
:1022D00081838AE082830895EE0FFF1F881F8BBFE2
:1022E0000790F691E02D19945058BB27AA270E9419
:1022F0008C110C9406130E94F81238F00E94FF1201
:1023000020F039F49F3F19F426F40C94F5120EF4E2
:10231000E095E7FB0C94EF12E92F0E94171358F396
:10232000BA17620773078407950720F079F4A6F5BA
:102330000C9439130EF4E0950B2EBA2FA02D0B013F
:10234000B90190010C01CA01A0011124FF27591BFA
:1023500099F0593F50F4503E68F11A16F040A22F00
:10236000232F342F4427585FF3CF46953795279571
:10237000A795F0405395C9F77EF41F16BA0B620B70
:10238000730B840BBAF09150A1F0FF0FBB1F661FB7
:10239000771F881FC2F70EC0BA0F621F731F841FFA
:1023A00048F4879577956795B795F7959E3F08F020
:1023B000B0CF9395880F08F09927EE0F97958795E2
:1023C00008950E94CB1208F481E008950E94FA114A
:1023D0000C9406130E94FF1258F00E94F81240F06D
:1023E00029F45F3F29F00C94EF1251110C943A1329
:1023F0000C94F5120E94171368F39923B1F3552337
:1024000091F3951B550BBB27AA2762177307840707
:1024100038F09F5F5F4F220F331F441FAA1FA9F39D
:1024200035D00E2E3AF0E0E832D091505040E6958B
:10243000001CCAF72BD0FE2F29D0660F771F881FEC
:10244000BB1F261737074807AB07B0E809F0BB0BDF
:10245000802DBF01FF2793585F4F3AF09E3F5105F3
:1024600078F00C94EF120C943A135F3FE4F3983E2B
:10247000D4F3869577956795B795F7959F5FC9F7DC
:10248000880F911D9695879597F90895E1E0660F5D
:10249000771F881FBB1F621773078407BA0720F0D6
:1024A000621B730B840BBA0BEE1F88F7E09508953F
:1024B0000E945F126894B1110C943A1308950E941F
:1024C0001F1388F09F5798F0B92F9927B751B0F094
:1024D000E1F0660F771F881F991F1AF0BA95C9F7A8
:1024E00014C0B13091F00E943913B1E008950C94FA
:1024F0003913672F782F8827B85F39F0B93FCCF3AD
:10250000869577956795B395D9F73EF49095809524
:10251000709561957F4F8F4F9F4F0895E89409C044
:1025200097FB3EF490958095709561957F4F8F4F06
:102530009F4F9923A9F0F92F96E9BB279395F6951C
:10254000879577956795B795F111F8CFFAF4BB0F9A
:1025500011F460FF1BC06F5F7F4F8F4F9F4F16C0FE
:10256000882311F096E911C0772321F09EE8872F88
:10257000762F05C0662371F096E8862F70E060E044
:102580002AF09A95660F771F881FDAF7880F9695BD
:10259000879597F90895990F0008550FAA0BE0E861
:1025A000FEEF16161706E807F907C0F01216130615
:1025B000E407F50798F0621B730B840B950B39F455
:1025C0000A2661F0232B242B252B21F408950A26BB
:1025D00009F4A140A6958FEF811D811D089597F9FB
:1025E0009F6780E870E060E008959FEF80EC0895B9
:1025F00000240A94161617061806090608950024E2
:102600000A9412161306140605060895092E03945B
:10261000000C11F4882352F0BB0F40F4BF2B11F4CF
:1026200060FF04C06F5F7F4F8F4F9F4F089557FD2E
:102630009058440F551F59F05F3F71F04795880F30
:1026400097FB991F61F09F3F79F0879508951216C7
:1026500013061406551FF2CF4695F1DF08C0161673
:1026600017061806991FF1CF869571056105089424
:102670000895E894BB2766277727CB0197F908953B
:102680000E94CB1208F48FEF08950E9458130C9407
:1026900006130E94F81238F00E94FF1220F09523D2
:1026A00011F00C94EF120C94F51211240C943A13BF
:1026B0000E94171370F3959FC1F3950F50E0551FBB
:1026C000629FF001729FBB27F00DB11D639FAA2787
:1026D000F00DB11DAA1F649F6627B00DA11D661FD6
:1026E000829F2227B00DA11D621F739FB00DA11DF7
:1026F000621F839FA00D611D221F749F3327A00DB1
:10270000611D231F849F600D211D822F762F6A2F4C
:1027100011249F5750409AF0F1F088234AF0EE0FB1
:10272000FF1FBB1F661F771F881F91505040A9F7DE
:102730009E3F510580F00C94EF120C943A135F3FCA
:10274000E4F3983ED4F3869577956795B795F7951A
:10275000E7959F5FC1F7FE2B880F911D9695879592
:1027600097F9089519F416F40C94F5120C94F813D3
:102770000E941F13B8F39923C9F3B6F39F57550B63
:1027800087FF0E9406140024A0E640EA90018058CA
:102790005695979528F4805C660F771F881F20F068
:1027A00026173707480730F4621B730B840B202968
:1027B00031294A2BA69517940794202531254A27BD
:1027C00058F7660F771F881F20F02617370748072E
:1027D00030F4620B730B840B200D311D411DA0954D
:1027E00081F7B901842F9158880F969587950895A0
:1027F0009F3F31F0915020F4879577956795B79575
:10280000880F911D9695879597F90895915050409E
:10281000660F771F881FD2F7089581E090E0F89443
:082820000C941214F894FFCF90
:10282800CC01CC01CC01CC01CC01CC01CC01CC0138
:102838000000000000132A0B3130122B0A2F2E0043
:102848000000000000000000000000000000000080
:1028580000006402CD01FB01B1022C020A021E0233
:042868000D0A000055
:00000001FF
